{
  "_format": "hh-sol-artifact-1",
  "contractName": "SafetyRegistry",
  "sourceName": "contracts/SafetyRegistry.sol",
  "abi": [
    {
      "inputs": [],
      "stateMutability": "nonpayable",
      "type": "constructor"
    },
    {
      "anonymous": false,
      "inputs": [
        {
          "indexed": true,
          "internalType": "address",
          "name": "previousOwner",
          "type": "address"
        },
        {
          "indexed": true,
          "internalType": "address",
          "name": "newOwner",
          "type": "address"
        }
      ],
      "name": "OwnershipTransferred",
      "type": "event"
    },
    {
      "anonymous": false,
      "inputs": [
        {
          "indexed": true,
          "internalType": "uint256",
          "name": "reportId",
          "type": "uint256"
        },
        {
          "indexed": true,
          "internalType": "address",
          "name": "reporter",
          "type": "address"
        },
        {
          "indexed": false,
          "internalType": "bytes32",
          "name": "reportHash",
          "type": "bytes32"
        },
        {
          "indexed": false,
          "internalType": "string",
          "name": "reportType",
          "type": "string"
        }
      ],
      "name": "SafetyReportSubmitted",
      "type": "event"
    },
    {
      "anonymous": false,
      "inputs": [
        {
          "indexed": true,
          "internalType": "uint256",
          "name": "reportId",
          "type": "uint256"
        },
        {
          "indexed": true,
          "internalType": "address",
          "name": "verifier",
          "type": "address"
        }
      ],
      "name": "SafetyReportVerified",
      "type": "event"
    },
    {
      "inputs": [
        {
          "internalType": "uint256",
          "name": "reportId",
          "type": "uint256"
        }
      ],
      "name": "getSafetyReport",
      "outputs": [
        {
          "internalType": "address",
          "name": "reporter",
          "type": "address"
        },
        {
          "internalType": "bytes32",
          "name": "reportHash",
          "type": "bytes32"
        },
        {
          "internalType": "uint256",
          "name": "timestamp",
          "type": "uint256"
        },
        {
          "internalType": "string",
          "name": "reportType",
          "type": "string"
        },
        {
          "internalType": "bool",
          "name": "isVerified",
          "type": "bool"
        }
      ],
      "stateMutability": "view",
      "type": "function"
    },
    {
      "inputs": [],
      "name": "getTotalReports",
      "outputs": [
        {
          "internalType": "uint256",
          "name": "",
          "type": "uint256"
        }
      ],
      "stateMutability": "view",
      "type": "function"
    },
    {
      "inputs": [],
      "name": "owner",
      "outputs": [
        {
          "internalType": "address",
          "name": "",
          "type": "address"
        }
      ],
      "stateMutability": "view",
      "type": "function"
    },
    {
      "inputs": [],
      "name": "renounceOwnership",
      "outputs": [],
      "stateMutability": "nonpayable",
      "type": "function"
    },
    {
      "inputs": [],
      "name": "reportCount",
      "outputs": [
        {
          "internalType": "uint256",
          "name": "",
          "type": "uint256"
        }
      ],
      "stateMutability": "view",
      "type": "function"
    },
    {
      "inputs": [
        {
          "internalType": "uint256",
          "name": "",
          "type": "uint256"
        }
      ],
      "name": "reports",
      "outputs": [
        {
          "internalType": "address",
          "name": "reporter",
          "type": "address"
        },
        {
          "internalType": "bytes32",
          "name": "reportHash",
          "type": "bytes32"
        },
        {
          "internalType": "uint256",
          "name": "timestamp",
          "type": "uint256"
        },
        {
          "internalType": "string",
          "name": "reportType",
          "type": "string"
        },
        {
          "internalType": "bool",
          "name": "isVerified",
          "type": "bool"
        }
      ],
      "stateMutability": "view",
      "type": "function"
    },
    {
      "inputs": [
        {
          "internalType": "bytes32",
          "name": "reportHash",
          "type": "bytes32"
        },
        {
          "internalType": "string",
          "name": "reportType",
          "type": "string"
        }
      ],
      "name": "submitSafetyReport",
      "outputs": [
        {
          "internalType": "uint256",
          "name": "",
          "type": "uint256"
        }
      ],
      "stateMutability": "nonpayable",
      "type": "function"
    },
    {
      "inputs": [
        {
          "internalType": "address",
          "name": "newOwner",
          "type": "address"
        }
      ],
      "name": "transferOwnership",
      "outputs": [],
      "stateMutability": "nonpayable",
      "type": "function"
    },
    {
      "inputs": [
        {
          "internalType": "uint256",
          "name": "reportId",
          "type": "uint256"
        }
      ],
      "name": "verifySafetyReport",
      "outputs": [],
      "stateMutability": "nonpayable",
      "type": "function"
    }
  ],
  "bytecode": "0x608060405234801561001057600080fd5b5061001a33610024565b6000600255610074565b600080546001600160a01b038381166001600160a01b0319831681178455604051919092169283917f8be0079c531659141344cd1fd0a4f28419497f9722a3daafe3b4186f6b6457e09190a35050565b610ad9806100836000396000f3fe608060405234801561001057600080fd5b50600436106100935760003560e01c8063c942adf711610066578063c942adf7146100ec578063d4e9950014610110578063e230ab5514610118578063f2fde38b1461012b578063f7c6cc3e1461013e57600080fd5b8063185c6f8414610098578063715018a6146100b45780638da5cb5b146100be57806393658093146100d9575b600080fd5b6100a160025481565b6040519081526020015b60405180910390f35b6100bc610151565b005b6000546040516001600160a01b0390911681526020016100ab565b6100bc6100e736600461072c565b610165565b6100ff6100fa36600461072c565b610255565b6040516100ab95949392919061078b565b6002546100a1565b6100a16101263660046107e2565b61031c565b6100bc61013936600461089d565b6104d5565b6100ff61014c36600461072c565b61054e565b610159610682565b61016360006106dc565b565b61016d610682565b60025481106101975760405162461bcd60e51b815260040161018e906108cd565b60405180910390fd5b60008181526001602052604090206004015460ff16156102095760405162461bcd60e51b815260206004820152602760248201527f53616665747952656769737472793a205265706f727420616c72656164792076604482015266195c9a599a595960ca1b606482015260840161018e565b6000818152600160208190526040808320600401805460ff191690921790915551339183917fcde8c2d9b16c1ddf424bdb46d8795110d344d648170ba421b37e07b00ba8b9299190a350565b600160208190526000918252604090912080549181015460028201546003830180546001600160a01b03909516949293919261029090610912565b80601f01602080910402602001604051908101604052809291908181526020018280546102bc90610912565b80156103095780601f106102de57610100808354040283529160200191610309565b820191906000526020600020905b8154815290600101906020018083116102ec57829003601f168201915b5050506004909301549192505060ff1685565b60008261037f5760405162461bcd60e51b815260206004820152602b60248201527f53616665747952656769737472793a205265706f727420686173682063616e6e60448201526a6f7420626520656d70747960a81b606482015260840161018e565b60008251116103e45760405162461bcd60e51b815260206004820152602b60248201527f53616665747952656769737472793a205265706f727420747970652063616e6e60448201526a6f7420626520656d70747960a81b606482015260840161018e565b6002805490819060006103f68361094c565b90915550506040805160a0810182523381526020808201878152428385019081526060840188815260006080860181905287815260019485905295909520845181546001600160a01b0319166001600160a01b03909116178155915192820192909255905160028201559151909190600382019061047490826109c2565b50608091909101516004909101805460ff1916911515919091179055604051339082907f9e756c7535928d40ddbbf44d855ef06f2216c3eb438dbba896a65915ebcf2fbb906104c69088908890610a82565b60405180910390a39392505050565b6104dd610682565b6001600160a01b0381166105425760405162461bcd60e51b815260206004820152602660248201527f4f776e61626c653a206e6577206f776e657220697320746865207a65726f206160448201526564647265737360d01b606482015260840161018e565b61054b816106dc565b50565b60008060006060600060025486106105785760405162461bcd60e51b815260040161018e906108cd565b6000868152600160208181526040808420815160a08101835281546001600160a01b0316815293810154928401929092526002820154908301526003810180546060840191906105c790610912565b80601f01602080910402602001604051908101604052809291908181526020018280546105f390610912565b80156106405780601f1061061557610100808354040283529160200191610640565b820191906000526020600020905b81548152906001019060200180831161062357829003601f168201915b50505091835250506004919091015460ff16151560209182015281519082015160408301516060840151608090940151929b919a509850919650945092505050565b6000546001600160a01b031633146101635760405162461bcd60e51b815260206004820181905260248201527f4f776e61626c653a2063616c6c6572206973206e6f7420746865206f776e6572604482015260640161018e565b600080546001600160a01b038381166001600160a01b0319831681178455604051919092169283917f8be0079c531659141344cd1fd0a4f28419497f9722a3daafe3b4186f6b6457e09190a35050565b60006020828403121561073e57600080fd5b5035919050565b6000815180845260005b8181101561076b5760208185018101518683018201520161074f565b506000602082860101526020601f19601f83011685010191505092915050565b60018060a01b038616815284602082015283604082015260a0606082015260006107b860a0830185610745565b905082151560808301529695505050505050565b634e487b7160e01b600052604160045260246000fd5b600080604083850312156107f557600080fd5b82359150602083013567ffffffffffffffff8082111561081457600080fd5b818501915085601f83011261082857600080fd5b81358181111561083a5761083a6107cc565b604051601f8201601f19908116603f01168101908382118183101715610862576108626107cc565b8160405282815288602084870101111561087b57600080fd5b8260208601602083013760006020848301015280955050505050509250929050565b6000602082840312156108af57600080fd5b81356001600160a01b03811681146108c657600080fd5b9392505050565b60208082526025908201527f53616665747952656769737472793a205265706f727420646f6573206e6f7420604082015264195e1a5cdd60da1b606082015260800190565b600181811c9082168061092657607f821691505b60208210810361094657634e487b7160e01b600052602260045260246000fd5b50919050565b60006001820161096c57634e487b7160e01b600052601160045260246000fd5b5060010190565b601f8211156109bd57600081815260208120601f850160051c8101602086101561099a5750805b601f850160051c820191505b818110156109b9578281556001016109a6565b5050505b505050565b815167ffffffffffffffff8111156109dc576109dc6107cc565b6109f0816109ea8454610912565b84610973565b602080601f831160018114610a255760008415610a0d5750858301515b600019600386901b1c1916600185901b1785556109b9565b600085815260208120601f198616915b82811015610a5457888601518255948401946001909101908401610a35565b5085821015610a725787850151600019600388901b60f8161c191681555b5050505050600190811b01905550565b828152604060208201526000610a9b6040830184610745565b94935050505056fea2646970667358221220bca4a499386a23fc9a17d96c144761de7b3470ac0ba79125cdde850bb131222964736f6c63430008140033",
  "linkReferences": {},
  "deployedLinkReferences": {}
}